:020000040000FA
:0400000007EF00F016
:0A0008007A828FED05F0B3EF0CF0E3
:100600000001000A006400E80310272D4A6F6761AB
:10061000646F722031002D4A6F6761646F722032FF
:100620000056656E6365646F7200302564003A00A1
:030630004F000078
:1006340020EE9AF00F0EDE6AE806FDE220EEAAF044
:100644000F0EDE6AE806FDE220EEBAF00F0EDE6A57
:10065400E806FDE220EECAF00F0EDE6AE806FDE2CF
:1006640020EEDAF00F0EDE6AE806FDE220EEEAF094
:100674000F0EDE6AE806FDE2000E0001836F010E34
:10068400826F26EC0EF067BE53EF03F0675007E16C
:100694000A0E665CD8B051EF03F053EF03F064EF39
:1006A40003F0AA0E00018C6F000E8D6F2A0E8E6F60
:1006B400060E8F6F66C090F067C091F080EC07F073
:1006C40073EF03F0AA0E00018C6F000E8D6F2B0EDA
:1006D4008E6F060E8F6F66C090F067C091F080EC4D
:1006E40007F06BBE81EF03F06B5007E10A0E6A5C02
:1006F400D8B07FEF03F081EF03F092EF03F0BA0E6E
:1007040000018C6F000E8D6F2A0E8E6F060E8F6F98
:100714006AC090F06BC091F080EC07F0A1EF03F099
:10072400BA0E00018C6F000E8D6F2B0E8E6F060EAD
:100734008F6F6AC090F06BC091F080EC07F09A0E56
:100744000001806F000E816FAA0E826F000E836F0E
:1007540002EC0BF09A0E0001806F000E816F2E0EDA
:10076400826F060E836F02EC0BF09A0E0001806F0D
:10077400000E816FBA0E826F000E836F02EC0BF0D5
:100784009A0E0001806F000E816F0B0E826F060EB1
:10079400836F02EC0BF09A0E0001846F000E856FDC
:1007A400000E866F3AEC0AF065BEE4EF03F0655084
:1007B40007E10A0E645CD8B0E2EF03F0E4EF03F063
:1007C400F5EF03F0CA0E00018C6F000E8D6F2A0E38
:1007D4008E6F060E8F6F64C090F065C091F080EC50
:1007E40007F004EF04F0CA0E00018C6F000E8D6F49
:1007F4002B0E8E6F060E8F6F64C090F065C091F063
:1008040080EC07F069BE12EF04F0695007E10A0EAC
:10081400685CD8B010EF04F012EF04F023EF04F09A
:10082400DA0E00018C6F000E8D6F2A0E8E6F060E8D
:100834008F6F68C090F069C091F080EC07F032EFE0
:1008440004F0DA0E00018C6F000E8D6F2B0E8E6F8C
:10085400060E8F6F68C090F069C091F080EC07F0CD
:10086400EA0E0001806F000E816FCA0E826F000EC7
:10087400836F02EC0BF0EA0E0001806F000E816FB3
:100884002E0E826F060E836F02EC0BF0EA0E00014F
:10089400806F000E816FDA0E826F000E836F02ECA0
:1008A4000BF0EA0E0001806F000E816F160E826F4E
:1008B400060E836F02EC0BF0EA0E0001846F000E4B
:1008C400856F010E866F3AEC0AF0120021EE80F07B
:1008D40010EE1CF00F0EDBCFE3FFE806FCE221EE86
:1008E40070F010EE2CF00F0EDBCFE3FFE806FCE215
:1008F40021EE60F010EE3CF00F0EDBCFE3FFE806D4
:10090400FCE279B888EF04F08AEF04F0E4EF04F035
:1009140067BE98EF04F0675007E10A0E665CD8B032
:1009240096EF04F098EF04F0A8EF04F02C0E0D6E8F
:10093400000E0E6E2A0E0F6E060E106E66C011F0BB
:1009440067C012F053EC08F0B6EF04F02C0E0D6EF5
:10095400000E0E6E2B0E0F6E060E106E66C011F09A
:1009640067C012F053EC08F06BBEC4EF04F06B5098
:1009740007E10A0E6A5CD8B0C2EF04F0C4EF04F0D9
:10098400D4EF04F03C0E0D6E000E0E6E2A0E0F6EA8
:10099400060E106E6AC011F06BC012F053EC08F032
:1009A4003CEF05F03C0E0D6E000E0E6E2B0E0F6E1E
:1009B400060E106E6AC011F06BC012F053EC08F012
:1009C4003CEF05F065BEF2EF04F0655007E10A0E56
:1009D400645CD8B0F0EF04F0F2EF04F002EF05F03D
:1009E4002C0E0D6E000E0E6E2A0E0F6E060E106E7D
:1009F40064C011F065C012F053EC08F010EF05F07C
:100A04002C0E0D6E000E0E6E2B0E0F6E060E106E5B
:100A140064C011F065C012F053EC08F069BE1EEF1B
:100A240005F0695007E10A0E685CD8B01CEF05F0C8
:100A34001EEF05F02EEF05F03C0E0D6E000E0E6E4F
:100A44002A0E0F6E060E106E68C011F069C012F007
:100A540053EC08F03CEF05F03C0E0D6E000E0E6EEC
:100A64002B0E0F6E060E106E68C011F069C012F0E6
:100A740053EC08F01C0E016E000E026E2C0E036E79
:100A8400000E046EB0EC0BF01C0E016E000E026E34
:100A94002E0E036E060E046EB0EC0BF01C0E016EEF
:100AA400000E026E3C0E036E000E046EB0EC0BF0F2
:100AB400000E046E020E036E37EC0EF079A865EF9B
:100AC40005F067EF05F06DEF05F0000E046EC00E43
:100AD400036E37EC0EF0000E4D6E000E4C6E1C0EC5
:100AE4004C24D96E000E4D20DA6EDF501B6E1B5065
:100AF400036E046A13EC0EF04C4A4D2A4DBE8CEF83
:100B040005F04D5009E1050E4C5CD8A08CEF05F0C2
:100B14008EEF05F071EF05F012000600E9CF50F0FA
:100B2400EACF51F0E1CF52F0E2CF53F0D9CF54F0F5
:100B3400DACF55F0F3CF56F0F4CF57F0F6CF58F0A4
:100B4400F7CF59F0F8CF5AF0F5CF5BF0F2A4ADEF40
:100B540005F0AFEF05F080EF06F0F29479A8B5EF59
:100B640005F0B7EF05F018EF06F03C0ED76EB00EA7
:100B7400D66E77067750D8A4C2EF05F0C4EF05F01F
:100B8400C9EF05F06806D8A069060A0E776E6450AE
:100B94006510D8A4D0EF05F0D2EF05F005EF06F00C
:100BA40068506910D8A4D9EF05F0DBEF05F005EF24
:100BB40006F0D59E68EC04F0150E4F6E4B0E4E6E8B
:100BC400BE0EE82EFED74E2EFCD74F2EFAD700D0FD
:100BD400000E046E010E036E37EC0EF0210E056E4E
:100BE400060E066E000E076E83EC0AF00C0E056E00
:100BF400060E066E010E076E83EC0AF0E4EC09F0B3
:100C0400FF0018EF06F0682806E16928D8A40DEF64
:100C140006F00FEF06F016EF06F0000E696E3B0EBD
:100C2400686E6406D8A0650668EC04F079B81DEF18
:100C340006F01FEF06F080EF06F03C0ED76EB00E04
:100C4400D66E78067850D8A42AEF06F02CEF06F07A
:100C540031EF06F06A06D8A06B060A0E786E66506D
:100C64006710D8A438EF06F03AEF06F06DEF06F0FF
:100C74006A506B10D8A441EF06F043EF06F06DEF15
:100C840006F0D59E68EC04F0150E4F6E4B0E4E6EBA
:100C9400BE0EE82EFED74E2EFCD74F2EFAD700D02C
:100CA400000E046E010E036E37EC0EF0210E056E7D
:100CB400060E066E000E076E83EC0AF0170E056E24
:100CC400060E066E010E076E83EC0AF0E4EC09F0E2
:100CD400FF0080EF06F06A2806E16B28D8A475EFC0
:100CE40006F077EF06F07EEF06F0000E6B6E3B0E1B
:100CF4006A6E6606D8A0670668EC04F0F2A285EF77
:100D040006F087EF06F089EF06F06080F292F0A01B
:100D14008EEF06F090EF06F092EF06F06082F0900E
:100D24005BC0F5FF5AC0F8FF59C0F7FF58C0F6FF83
:100D340057C0F4FF56C0F3FF55C0DAFF54C0D9FFC3
:100D440053C0E2FF52C0E1FF51C0EAFF50C0E9FFC7
:100D54007A92110048EC0EF0000E0001816F000E33
:100D6400806F69EC0EF00001FE6FFE51D8A4BDEF58
:100D740006F0BFEF06F0C9EF06F0000E676E010E35
:100D8400666E66C064F067C065F0D3EF06F0FEC01F
:100D940066F0676A66C064F067C065F0FEC0FCF088
:100DA400FD6B3CEC0BF01AEC03F079A0DCEF06F0E1
:100DB400DEEF06F019EF07F080B8E3EF06F0E5EF99
:100DC40006F0EDEF06F09C0E0001FA6FD70EE82E48
:100DD400FED7FA2FFCD780B8F2EF06F0F4EF06F056
:100DE40019EF07F00001FDBF03EF07F0FD5107E124
:100DF4003C0EFC5DD8B001EF07F003EF07F007EFFE
:100E040007F0FC4BFD2B0BEF07F0000EFD6F010EFE
:100E1400FC6F23EC09F0080E0001FB6F1B0EFA6F48
:100E2400270EE82EFED7FA2FFCD7FB2FFAD760A2A5
:100E34001EEF07F020EF07F03DEF07F09C0E0001D6
:100E4400FA6FD70EE82EFED7FA2FFCD7609281A254
:100E54002EEF07F030EF07F03DEF07F079B635EFEE
:100E640007F037EF07F03BEF07F07986D58E3DEFBB
:100E740007F058EC0EF060A042EF07F044EF07F0E3
:100E8400D7EF06F09C0E0001FA6FD70EE82EFED7BE
:100E9400FA2FFCD7609081A052EF07F054EF07F0CF
:100EA400D7EF06F079B059EF07F05BEF07F06AEF80
:100EB40007F079807996D59E000E6B6E000E6A6EEF
:100EC400000E696E000E686E23EC09F0D7EF06F091
:100ED4007990000E0001816F000E806FFCC082F0DB
:100EE400E9EC0DF0FCC064F0FDC065F0FCC066F0F8
:100EF400FDC067F0D5EF06F007EF00F0900E00019B
:100F0400936F000E946F3BEF08F0250E9919D8B437
:100F14008EEF07F090EF07F09AEF07F08CC0D9FF3F
:100F24008DC0DAFF99C0DFFF8C4B8D2B3BEF08F0AF
:100F3400000E956F8EC0F6FF8FC0F7FF8E4B8F2B80
:100F44000800F5CF99F09951000AD8B44CEF08F095
:100F5400640AD8B4B4EF07F00D0AD8B4B4EF07F0BC
:100F64003BEF08F093C0D9FF94C0DAFFDECF97F0CF
:100F7400DDCF98F0020E9327000E942398BFC7EF9D
:100F840007F0C5EF07F0CDEF07F0030E9513976D4B
:100F9400981FD8B0982B010E996F9951020D010E2C
:100FA400F324F66E060EF420F76E0900F550975DF3
:100FB4000900F5509859D8B0E2EF07F0E4EF07F0D4
:100FC400E6EF07F0F0EF07F0992B050E9919D8A476
:100FD400EEEF07F0F0EF07F0CFEF07F095C092F0D7
:100FE400030E9217D8B4F9EF07F0FBEF07F003EF05
:100FF40008F08CC0D9FF8DC0DAFF2D0EDF6E8C4B4C
:101004008D2B99C096F032EF08F09651020D010E27
:10101400F324F66E060EF420F76E0900F5CF82F085
:101024000A00F5CF83F097C080F098C081F0C7EC38
:101034000AF080C087F081C088F0000E00018A6F3A
:101044000A0E896FE8EC0BF000018751300F996F9D
:101054008CC0D9FF8DC0DAFF99C0DFFF8C4B8D2B7C
:1010640096079629D8A439EF08F03BEF08F007EF6C
:1010740008F08EC0F6FF8FC0F7FF8E4B8F2B080051
:10108400F5CF99F09951D8A44AEF08F04CEF08F045
:1010940087EF07F08CC0D9FF8DC0DAFF000EDF6E3A
:1010A4001200110E146E000E156E0BEF09F0250ED2
:1010B4001A18D8B460EF08F062EF08F06CEF08F08B
:1010C4000DC0D9FF0EC0DAFF1AC0DFFF0D4A0E2A89
:1010D4000BEF09F0000E166E0FC0F6FF10C0F7FFFD
:1010E4000F4A102A0800F5CF1AF01A50000AD8B493
:1010F4001CEF09F0640AD8B486EF08F00D0AD8B4DE
:1011040086EF08F00BEF09F014C0D9FF15C0DAFF21
:10111400DECF18F0DDCF19F0020E1426000E1522D2
:1011240019BE99EF08F097EF08F09FEF08F0030E4F
:101134001612186C191ED8B0192A010E1A6E1A50FC
:10114400020D010EF324F66E060EF420F76E09006C
:10115400F550185C0900F5501958D8B0B4EF08F0F0
:10116400B6EF08F0B8EF08F0C2EF08F01A2A050E3F
:101174001A18D8A4C0EF08F0C2EF08F0A1EF08F0E5
:1011840016C013F0030E1316D8B4CBEF08F0CDEF4E
:1011940008F0D5EF08F00DC0D9FF0EC0DAFF2D0E10
:1011A400DF6E0D4A0E2A1AC017F002EF09F017502D
:1011B400020D010EF324F66E060EF420F76E0900FC
:1011C400F5CF03F00A00F5CF04F018C001F019C000
:1011D40002F076EC0BF001C008F002C009F0000E3A
:1011E4000B6E0A0E0A6E81EC0CF00850300F1A6E6A
:1011F4000DC0D9FF0EC0DAFF1AC0DFFF0D4A0E2A58
:1012040017061728D8A409EF09F00BEF09F0D9EF56
:1012140008F00FC0F6FF10C0F7FF0F4A102A0800AD
:10122400F5CF1AF01A50D8A41AEF09F01CEF09F000
:1012340059EF08F00DC0D9FF0EC0DAFF000EDF6EC3
:10124400120020EE6DF010EE9BF0080EDBCFE3FFF2
:10125400E806FCE2000E0001836F010E826F26ECAB
:101264000EF0000E0001A56F000EA46F9B0EA425C6
:10127400D96E000EA521DA6EDF509A6F9A51826FF3
:10128400836B00EC0EF00001A44BA52BA5BF54EF1B
:1012940009F0A55109E1090EA45DD8A054EF09F0A5
:1012A40056EF09F038EF09F0000E836FC00E826F1D
:1012B40026EC0EF00001FDBF6BEF09F0FD5107E1D4
:1012C4000A0EFC5DD8B069EF09F06BEF09F079EF15
:1012D40009F0AA0E8C6F000E8D6F2A0E8E6F060E0B
:1012E4008F6FFCC090F0FDC091F080EC07F0AA0E67
:1012F40000018C6F000E8D6F2B0E8E6F060E8F6F9C
:10130400FCC090F0FDC091F080EC07F00001FDBF3F
:1013140095EF09F0FD5109E10A0EFC5DD8A095EFA7
:1013240009F097EF09F0BBEF09F0000EA76F000E6C
:10133400A66FAA0EA625D96E000EA721DA6EDF507D
:101344009A6F9A51826F836B00EC0EF00001A64BEA
:10135400A72BA7BFB7EF09F0A75109E1020EA65DBD
:10136400D8A0B7EF09F0B9EF09F09BEF09F0E3EF6C
:1013740009F0000EA96F000EA86F060E836F300EE1
:10138400826F00EC0EF0AA0E0001A825D96E000EA3
:10139400A921DA6EDF509A6F9A51826F836B00EC49
:1013A4000EF00001A84BA92BA9BFE1EF09F0A95148
:1013B40008E1A805D8A0E1EF09F0E3EF09F0BFEFD9
:1013C40009F01200818E0B0E026E260E016E5E0E67
:1013D400E82EFED7012EFCD7022EFAD7819E0B0EE3
:1013E400026E260E016E5E0EE82EFED7012EFCD78D
:1013F400022EFAD7818E0B0E026E260E016E5E0E41
:10140400E82EFED7012EFCD7022EFAD7819E0B0EB2
:10141400026E260E016E5E0EE82EFED7012EFCD75C
:10142400022EFAD7818E0B0E026E260E016E5E0E10
:10143400E82EFED7012EFCD7022EFAD7819E0B0E82
:10144400026E260E016E5E0EE82EFED7012EFCD72C
:10145400022EFAD7818E0B0E026E260E016E5E0EE0
:10146400E82EFED7012EFCD7022EFAD7819E120059
:1014740000018651D8B441EF0AF043EF0AF049EF76
:101484000AF0000E836FC00E826F26EC0EF0000E81
:1014940000018A6F6DEF0AF08A518425876F000E70
:1014A4008521886F87C0F6FF88C0F7FFF86A050EAC
:1014B400F76403D00800F55005D0F6CFE9FFF7CF65
:1014C400EAFFEF500001896F8951826F836B00EC52
:1014D4000EF000018A2B84C080F085C081F099EC65
:1014E4000DF000018A51876F886B8051875D8151AF
:1014F4008859D8A080EF0AF082EF0AF04EEF0AF084
:1015040012000750D8B489EF0AF08BEF0AF091EF7C
:101514000AF0000E046EC00E036E37EC0EF0000EDF
:101524000B6EB2EF0AF00B500524086E000E062075
:10153400096E08C0F6FF09C0F7FFF86A050EF764E4
:1015440003D00800F55005D0F6CFE9FFF7CFEAFF46
:10155400EF500A6E0A50036E046A13EC0EF00B2A65
:1015640005C001F006C002F0C2EC0DF00B50086E8D
:10157400096A0150085C02500958D8A0C4EF0AF067
:10158400C6EF0AF095EF0AF01200000E0001856F15
:10159400000E846F82518311D8B4D3EF0AF0D5EFD3
:1015A4000AF0FDEF0AF0010E866FDDEF0AF0D89025
:1015B40082378337862B83AFE2EF0AF0E4EF0AF039
:1015C400D9EF0AF0D890843785378251805D8351F2
:1015D4008159D8A0F0EF0AF0F2EF0AF0F7EF0AF021
:1015E4008251805F8351815B8481D89083338233BD
:1015F400862FE4EF0AF084C080F085C081F01200E9
:1016040080C084F081C085F00BEF0BF00001844BA7
:10161400852B84C0D9FF85C0DAFFDF50D8A415EF2D
:101624000BF017EF0BF008EF0BF01EEF0BF00001BF
:10163400844B852B824B832B82C0F6FF83C0F7FF3C
:10164400F86A84C0D9FF85C0DAFF050EF76403D0B9
:101654000800F55005D0F6CFE9FFF7CFEAFFEF50C9
:10166400DF6EDF50D8A439EF0BF03BEF0BF019EF2E
:101674000BF01200000E836E000E956E1BEC0CF046
:101684001BEC0CF01BEC0CF01BEC0CF0839A030E1F
:10169400836E62EC0EF01BEC0CF062EC0EF01BECB3
:1016A4000CF062EC0EF0020E836E62EC0EF0000E93
:1016B4000001836F2C0E826F26EC0EF0000E0001E9
:1016C400836F0C0E826F26EC0EF0000E0001836F08
:1016D400010E826F26EC0EF0000E0001836F060EE1
:1016E400826F26EC0EF01200000E066E000E056EE0
:1016F40003500410D8B481EF0BF083EF0BF0ABEF81
:101704000BF0010E076E8BEF0BF0D8900336043606
:10171400072A04AE90EF0BF092EF0BF087EF0BF07B
:10172400D890053606360350015C04500258D8A000
:101734009EEF0BF0A0EF0BF0A5EF0BF00350015E52
:101744000450025A0580D89004320332072E92EFD7
:101754000BF005C001F006C002F0120001C005F054
:1017640002C006F0B8EF0BF0054A062A05C0D9FFFF
:1017740006C0DAFFDF50D8A4C2EF0BF0C4EF0BF0C1
:10178400B6EF0BF0CAEF0BF0054A062A034A042A07
:1017940003C0F6FF04C0F7FFF86A05C0D9FF06C00E
:1017A400DAFF050EF76403D00800F55005D0F6CF34
:1017B400E9FFF7CFEAFFEF50DF6EDF50D8A4E5EF83
:1017C4000BF0E7EF0BF0C6EF0BF0120000018951AC
:1017D4008A11D8B4F0EF0BF0F2EF0BF016EF0CF027
:1017E400010E8B6FFAEF0BF0D89089378A378B2B69
:1017F4008AAFFFEF0BF001EF0CF0F6EF0BF089511D
:10180400875D8A518859D8A00AEF0CF00CEF0CF0D0
:1018140010EF0CF08951875F8A51885BD8908A3326
:1018240089338B2F01EF0CF087C087F088C088F0D4
:101834001200010E5C6E000E5D6E000E5E6E000EF8
:101844005F6E5FBE32EF0CF05F505E100BE1F40E82
:101854005C5C010E5D58D8A032EF0CF034EF0CF054
:1018640036EF0CF04DEF0CF0010E5C26000E5D22FD
:101874005E225F225FBE4BEF0CF05F505E100BE107
:10188400F40E5C5C010E5D58D8A04BEF0CF04DEFEC
:101894000CF036EF0CF01200010E5C6E000E5D6E63
:1018A400000E5E6E000E5F6E5FBE65EF0CF05F5063
:1018B4005E100BE1F40E5C5C010E5D58D8A065EF80
:1018C4000CF067EF0CF069EF0CF080EF0CF0010EF8
:1018D4005C26000E5D225E225F225FBE7EEF0CF06E
:1018E4005F505E100BE1F40E5C5C010E5D58D8A0F5
:1018F4007EEF0CF080EF0CF069EF0CF012000A5050
:101904000B10D8B488EF0CF08AEF0CF0AEEF0CF0AB
:10191400010E0C6E92EF0CF0D8900A360B360C2A9E
:101924000BAE97EF0CF099EF0CF08EEF0CF00A5021
:10193400085C0B500958D8A0A2EF0CF0A4EF0CF0EF
:10194400A8EF0CF00A50085E0B50095AD8900B32DD
:101954000A320C2E99EF0CF008C008F009C009F007
:101964001200FA0EF66E1C0EF76E000EF86E0900E9
:10197400F5CFFCF00900F5CFFDF0EE0EF66E1C0E6F
:10198400F76E000EF86E00EE6DF010EE0CF009002C
:10199400F5CFEEFFE550E150FAE101EE00F0900ED4
:1019A400EE6AE806FDE1796A00EE5CF0110EEE6A7B
:1019B400E806FDE17A907A92000EF86E0001ACEF31
:1019C40006F0000180AFE9EF0CF0EBEF0CF0EEEF66
:1019D4000CF08386EFEF0CF0839680ADF4EF0CF0FF
:1019E400F6EF0CF0F9EF0CF08384FAEF0CF083942B
:1019F40080ABFFEF0CF001EF0DF004EF0DF08382EC
:101A040005EF0DF0839280A90AEF0DF00CEF0DF0B5
:101A14000FEF0DF0838010EF0DF0839012000001A2
:101A240080A717EF0DF019EF0DF01CEF0DF0838672
:101A34001DEF0DF0839680A522EF0DF024EF0DF03D
:101A440027EF0DF0838428EF0DF0839480A32DEF0E
:101A54000DF02FEF0DF032EF0DF0838233EF0DF028
:101A6400839280A138EF0DF03AEF0DF03DEF0DF0C9
:101A740083803EEF0DF08390120001AE44EF0DF031
:101A840046EF0DF049EF0DF083864AEF0DF0839693
:101A940001AC4FEF0DF051EF0DF054EF0DF08384D6
:101AA40055EF0DF0839401AA5AEF0DF05CEF0DF0A1
:101AB4005FEF0DF0838260EF0DF0839201A865EF74
:101AC4000DF067EF0DF06AEF0DF083806BEF0DF012
:101AD4008390120001A671EF0DF073EF0DF076EF15
:101AE4000DF0838677EF0DF0839601A47CEF0DF063
:101AF4007EEF0DF081EF0DF0838482EF0DF083947F
:101B040001A287EF0DF089EF0DF08CEF0DF08382C9
:101B14008DEF0DF0839201A092EF0DF094EF0DF094
:101B240097EF0DF0838098EF0DF08390120080C042
:101B340082F081C083F0A2EF0DF00001824B832B71
:101B440082C0F6FF83C0F7FFF86A050EF76403D07E
:101B54000800F55005D0F6CFE9FFF7CFEAFFEF50C4
:101B64000009D8A4B8EF0DF0BAEF0DF09FEF0DF017
:101B740000018051825D806F81518359816F120011
:101B840001C003F002C004F0CAEF0DF0034A042AB6
:101B940003C0F6FF04C0F7FFF86A050EF76403D02C
:101BA4000800F55005D0F6CFE9FFF7CFEAFFEF5074
:101BB4000009D8A4E0EF0DF0E2EF0DF0C8EF0DF04E
:101BC4000150035C016E02500458026E120080C082
:101BD400A9FF82C0A8FFA69EA69CA684F29E550ECD
:101BE400A76EAA0EA76EA682F28EA1A8FCEF0DF036
:101BF400FEEF0DF0F7EF0DF0A1981200838A82C07A
:101C040080F083C081F0E3EC0CF062EC0EF082C053
:101C140080F083C081F011EC0DF062EC0EF0839A39
:101C24001200838A03C001F004C002F03FEC0DF0FF
:101C340070EC0EF003C001F004C002F06CEC0DF087
:101C440070EC0EF0839A120082C080F083C081F0A1
:101C5400E3EC0CF062EC0EF082C080F083C081F003
:101C640011EC0DF062EC0EF0120003C001F004C0A0
:101C740002F03FEC0DF070EC0EF003C001F004C074
:101C840002F06CEC0DF070EC0EF01200C168000E66
:101C9400956E030E936EB00EF26E020ED56E3C0E70
:101CA400D76EB00ED66EF086819E120079A85DEFD5
:101CB4000EF060EF0EF0798861EF0EF07998120063
:101CC40083881BEC0CF083981BEC0CF0120080C092
:101CD400A9FFA694A69EA680A850120083884EEC65
:101CE4000CF083984EEC0CF01200434F4E464947DB
:081CF400555241FF0A0A0100EC
:020000040020DA
:08000000FFFFFFFFFFFFFFFF00
:020000040030CA
:0E000000FF071F1EFF8385FF0FC00FE00F409C
:00000001FF
