:020000040000FA
:0400000007EF00F016
:0A0008007A828FED05F0B6EF0CF0E0
:100600000001000A006400E80310272D4A6F6761AB
:10061000646F722031002D4A6F6761646F722032FF
:100620000056656E6365646F7200302564003A00A1
:030630004F000078
:1006340020EE9AF00F0EDE6AE806FDE220EEAAF044
:100644000F0EDE6AE806FDE220EEBAF00F0EDE6A57
:10065400E806FDE220EECAF00F0EDE6AE806FDE2CF
:1006640020EEDAF00F0EDE6AE806FDE220EEEAF094
:100674000F0EDE6AE806FDE2000E0001836F010E34
:10068400826F29EC0EF067BE53EF03F0675007E169
:100694000A0E665CD8B051EF03F053EF03F064EF39
:1006A40003F0AA0E00018C6F000E8D6F2A0E8E6F60
:1006B400060E8F6F66C090F067C091F083EC07F070
:1006C40073EF03F0AA0E00018C6F000E8D6F2B0EDA
:1006D4008E6F060E8F6F66C090F067C091F083EC4A
:1006E40007F06BBE81EF03F06B5007E10A0E6A5C02
:1006F400D8B07FEF03F081EF03F092EF03F0BA0E6E
:1007040000018C6F000E8D6F2A0E8E6F060E8F6F98
:100714006AC090F06BC091F083EC07F0A1EF03F096
:10072400BA0E00018C6F000E8D6F2B0E8E6F060EAD
:100734008F6F6AC090F06BC091F083EC07F09A0E53
:100744000001806F000E816FAA0E826F000E836F0E
:1007540005EC0BF09A0E0001806F000E816F2E0ED7
:10076400826F060E836F05EC0BF09A0E0001806F0A
:10077400000E816FBA0E826F000E836F05EC0BF0D2
:100784009A0E0001806F000E816F0B0E826F060EB1
:10079400836F05EC0BF09A0E0001846F000E856FD9
:1007A400000E866F3DEC0AF065BEE4EF03F0655081
:1007B40007E10A0E645CD8B0E2EF03F0E4EF03F063
:1007C400F5EF03F0CA0E00018C6F000E8D6F2A0E38
:1007D4008E6F060E8F6F64C090F065C091F083EC4D
:1007E40007F004EF04F0CA0E00018C6F000E8D6F49
:1007F4002B0E8E6F060E8F6F64C090F065C091F063
:1008040083EC07F069BE12EF04F0695007E10A0EA9
:10081400685CD8B010EF04F012EF04F023EF04F09A
:10082400DA0E00018C6F000E8D6F2A0E8E6F060E8D
:100834008F6F68C090F069C091F083EC07F032EFDD
:1008440004F0DA0E00018C6F000E8D6F2B0E8E6F8C
:10085400060E8F6F68C090F069C091F083EC07F0CA
:10086400EA0E0001806F000E816FCA0E826F000EC7
:10087400836F05EC0BF0EA0E0001806F000E816FB0
:100884002E0E826F060E836F05EC0BF0EA0E00014C
:10089400806F000E816FDA0E826F000E836F05EC9D
:1008A4000BF0EA0E0001806F000E816F160E826F4E
:1008B400060E836F05EC0BF0EA0E0001846F000E48
:1008C400856F010E866F3DEC0AF0120021EE80F078
:1008D40010EE1CF00F0EDBCFE3FFE806FCE221EE86
:1008E40070F010EE2CF00F0EDBCFE3FFE806FCE215
:1008F40021EE60F010EE3CF00F0EDBCFE3FFE806D4
:10090400FCE279B888EF04F08AEF04F0E4EF04F035
:1009140067BE98EF04F0675007E10A0E665CD8B032
:1009240096EF04F098EF04F0A8EF04F02C0E0D6E8F
:10093400000E0E6E2A0E0F6E060E106E66C011F0BB
:1009440067C012F056EC08F0B6EF04F02C0E0D6EF2
:10095400000E0E6E2B0E0F6E060E106E66C011F09A
:1009640067C012F056EC08F06BBEC4EF04F06B5095
:1009740007E10A0E6A5CD8B0C2EF04F0C4EF04F0D9
:10098400D4EF04F03C0E0D6E000E0E6E2A0E0F6EA8
:10099400060E106E6AC011F06BC012F056EC08F02F
:1009A4003CEF05F03C0E0D6E000E0E6E2B0E0F6E1E
:1009B400060E106E6AC011F06BC012F056EC08F00F
:1009C4003CEF05F065BEF2EF04F0655007E10A0E56
:1009D400645CD8B0F0EF04F0F2EF04F002EF05F03D
:1009E4002C0E0D6E000E0E6E2A0E0F6E060E106E7D
:1009F40064C011F065C012F056EC08F010EF05F079
:100A04002C0E0D6E000E0E6E2B0E0F6E060E106E5B
:100A140064C011F065C012F056EC08F069BE1EEF18
:100A240005F0695007E10A0E685CD8B01CEF05F0C8
:100A34001EEF05F02EEF05F03C0E0D6E000E0E6E4F
:100A44002A0E0F6E060E106E68C011F069C012F007
:100A540056EC08F03CEF05F03C0E0D6E000E0E6EE9
:100A64002B0E0F6E060E106E68C011F069C012F0E6
:100A740056EC08F01C0E016E000E026E2C0E036E76
:100A8400000E046EB3EC0BF01C0E016E000E026E31
:100A94002E0E036E060E046EB3EC0BF01C0E016EEC
:100AA400000E026E3C0E036E000E046EB3EC0BF0EF
:100AB400000E046E020E036E3AEC0EF079A865EF98
:100AC40005F067EF05F06DEF05F0000E046EC00E43
:100AD400036E3AEC0EF0000E4D6E000E4C6E1C0EC2
:100AE4004C24D96E000E4D20DA6EDF501B6E1B5065
:100AF400036E046A16EC0EF04C4A4D2A4DBE8CEF80
:100B040005F04D5009E1050E4C5CD8A08CEF05F0C2
:100B14008EEF05F071EF05F012000600E9CF50F0FA
:100B2400EACF51F0E1CF52F0E2CF53F0D9CF54F0F5
:100B3400DACF55F0F3CF56F0F4CF57F0F6CF58F0A4
:100B4400F7CF59F0F8CF5AF0F5CF5BF0F2A4ADEF40
:100B540005F0AFEF05F080EF06F0F29479A8B5EF59
:100B640005F0B7EF05F018EF06F03C0ED76EB00EA7
:100B7400D66E77067750D8A4C2EF05F0C4EF05F01F
:100B8400C9EF05F06806D8A069060A0E776E6450AE
:100B94006510D8A4D0EF05F0D2EF05F005EF06F00C
:100BA40068506910D8A4D9EF05F0DBEF05F005EF24
:100BB40006F0D59E68EC04F0150E4F6E4B0E4E6E8B
:100BC400BE0EE82EFED74E2EFCD74F2EFAD700D0FD
:100BD400000E046E010E036E3AEC0EF0210E056E4B
:100BE400060E066E000E076E86EC0AF00C0E056EFD
:100BF400060E066E010E076E86EC0AF0E7EC09F0AD
:100C0400FF0018EF06F0682806E16928D8A40DEF64
:100C140006F00FEF06F016EF06F0000E696E3B0EBD
:100C2400686E6406D8A0650668EC04F079B81DEF18
:100C340006F01FEF06F080EF06F03C0ED76EB00E04
:100C4400D66E78067850D8A42AEF06F02CEF06F07A
:100C540031EF06F06A06D8A06B060A0E786E66506D
:100C64006710D8A438EF06F03AEF06F06DEF06F0FF
:100C74006A506B10D8A441EF06F043EF06F06DEF15
:100C840006F0D59E68EC04F0150E4F6E4B0E4E6EBA
:100C9400BE0EE82EFED74E2EFCD74F2EFAD700D02C
:100CA400000E046E010E036E3AEC0EF0210E056E7A
:100CB400060E066E000E076E86EC0AF0170E056E21
:100CC400060E066E010E076E86EC0AF0E7EC09F0DC
:100CD400FF0080EF06F06A2806E16B28D8A475EFC0
:100CE40006F077EF06F07EEF06F0000E6B6E3B0E1B
:100CF4006A6E6606D8A0670668EC04F0F2A285EF77
:100D040006F087EF06F089EF06F06080F292F0A01B
:100D14008EEF06F090EF06F092EF06F06082F0900E
:100D24005BC0F5FF5AC0F8FF59C0F7FF58C0F6FF83
:100D340057C0F4FF56C0F3FF55C0DAFF54C0D9FFC3
:100D440053C0E2FF52C0E1FF51C0EAFF50C0E9FFC7
:100D54007A9211004BEC0EF0000E0001816F000E30
:100D6400806F6CEC0EF00001FE6FFE51D8A4BDEF55
:100D740006F0BFEF06F0C9EF06F0000E676E010E35
:100D8400666E66C064F067C065F0D3EF06F0FEC01F
:100D940066F0676A66C064F067C065F0FEC0FCF088
:100DA400FD6B3FEC0BF01AEC03F079A0DCEF06F0DE
:100DB400DEEF06F019EF07F080B8E3EF06F0E5EF99
:100DC40006F0EDEF06F09C0E0001FA6FD70EE82E48
:100DD400FED7FA2FFCD780B8F2EF06F0F4EF06F056
:100DE40019EF07F00001FDBF03EF07F0FD5107E124
:100DF4003C0EFC5DD8B001EF07F003EF07F007EFFE
:100E040007F0FC4BFD2B0BEF07F0000EFD6F010EFE
:100E1400FC6F26EC09F0080E0001FB6F1B0EFA6F45
:100E2400270EE82EFED7FA2FFCD7FB2FFAD760A2A5
:100E34001EEF07F020EF07F03DEF07F09C0E0001D6
:100E4400FA6FD70EE82EFED7FA2FFCD7609281A254
:100E54002EEF07F030EF07F03DEF07F079B635EFEE
:100E640007F037EF07F03BEF07F07986D58E3DEFBB
:100E740007F05BEC0EF060A042EF07F044EF07F0E0
:100E8400D7EF06F09C0E0001FA6FD70EE82EFED7BE
:100E9400FA2FFCD7609081A052EF07F054EF07F0CF
:100EA400D7EF06F079B059EF07F05BEF07F06AEF80
:100EB40007F079807996D59E000E6B6E000E6A6EEF
:100EC400000E696E000E686E26EC09F0D7EF06F08E
:100ED4007990000E0001816F000E806FFCC082F0DB
:100EE400ECEC0DF0FCC064F0FDC065F0FCC066F0F5
:100EF400FDC067F01AEC03F0FF00D7EF06F007EF30
:100F040000F0900E0001936F000E946F3EEF08F016
:100F1400250E9919D8B491EF07F093EF07F09DEFE0
:100F240007F08CC0D9FF8DC0DAFF99C0DFFF8C4B6E
:100F34008D2B3EEF08F0000E956F8EC0F6FF8FC02C
:100F4400F7FF8E4B8F2B0800F5CF99F09951000ACB
:100F5400D8B44FEF08F0640AD8B4B7EF07F00D0A1D
:100F6400D8B4B7EF07F03EEF08F093C0D9FF94C0B0
:100F7400DAFFDECF97F0DDCF98F0020E9327000E54
:100F8400942398BFCAEF07F0C8EF07F0D0EF07F03B
:100F9400030E9513976D981FD8B0982B010E996F77
:100FA4009951020D010EF324F66E060EF420F76E2D
:100FB4000900F550975D0900F5509859D8B0E5EF50
:100FC40007F0E7EF07F0E9EF07F0F3EF07F0992BED
:100FD400050E9919D8A4F1EF07F0F3EF07F0D2EF5B
:100FE40007F095C092F0030E9217D8B4FCEF07F007
:100FF400FEEF07F006EF08F08CC0D9FF8DC0DAFFD2
:101004002D0EDF6E8C4B8D2B99C096F035EF08F0CA
:101014009651020D010EF324F66E060EF420F76EBF
:101024000900F5CF82F00A00F5CF83F097C080F075
:1010340098C081F0CAEC0AF080C087F081C088F0C3
:10104400000E00018A6F0A0E896FEBEC0BF00001B1
:101054008751300F996F8CC0D9FF8DC0DAFF99C0CA
:10106400DFFF8C4B8D2B96079629D8A43CEF08F014
:101074003EEF08F00AEF08F08EC0F6FF8FC0F7FFCE
:101084008E4B8F2B0800F5CF99F09951D8A44DEFD2
:1010940008F04FEF08F08AEF07F08CC0D9FF8DC03D
:1010A400DAFF000EDF6E1200110E146E000E156EC4
:1010B4000EEF09F0250E1A18D8B463EF08F065EFA7
:1010C40008F06FEF08F00DC0D9FF0EC0DAFF1AC0A8
:1010D400DFFF0D4A0E2A0EEF09F0000E166E0FC048
:1010E400F6FF10C0F7FF0F4A102A0800F5CF1AF0D8
:1010F4001A50000AD8B41FEF09F0640AD8B489EF73
:1011040008F00D0AD8B489EF08F00EEF09F014C006
:10111400D9FF15C0DAFFDECF18F0DDCF19F0020ECB
:101124001426000E152219BE9CEF08F09AEF08F061
:10113400A2EF08F0030E1612186C191ED8B0192A63
:10114400010E1A6E1A50020D010EF324F66E060EED
:10115400F420F76E0900F550185C0900F550195891
:10116400D8B0B7EF08F0B9EF08F0BBEF08F0C5EF5F
:1011740008F01A2A050E1A18D8A4C3EF08F0C5EF10
:1011840008F0A4EF08F016C013F0030E1316D8B439
:10119400CEEF08F0D0EF08F0D8EF08F00DC0D9FF7B
:1011A4000EC0DAFF2D0EDF6E0D4A0E2A1AC017F09C
:1011B40005EF09F01750020D010EF324F66E060E2A
:1011C400F420F76E0900F5CF03F00A00F5CF04F020
:1011D40018C001F019C002F079EC0BF001C008F05E
:1011E40002C009F0000E0B6E0A0E0A6E84EC0CF0BD
:1011F4000850300F1A6E0DC0D9FF0EC0DAFF1AC0A6
:10120400DFFF0D4A0E2A17061728D8A40CEF09F0A1
:101214000EEF09F0DCEF08F00FC0F6FF10C0F7FF87
:101224000F4A102A0800F5CF1AF01A50D8A41DEF5F
:1012340009F01FEF09F05CEF08F00DC0D9FF0EC0F4
:10124400DAFF000EDF6E120020EE6DF010EE9BF060
:10125400080EDBCFE3FFE806FCE2000E0001836F1B
:10126400010E826F29EC0EF0000E0001A56F000E36
:10127400A46F9B0EA425D96E000EA521DA6EDF5053
:101284009A6F9A51826F836B03EC0EF00001A44BAA
:10129400A52BA5BF57EF09F0A55109E1090EA45DDF
:1012A400D8A057EF09F059EF09F03BEF09F0000E11
:1012B400836FC00E826F29EC0EF00001FDBF6EEF4C
:1012C40009F0FD5107E10A0EFC5DD8B06CEF09F09E
:1012D4006EEF09F07CEF09F0AA0E8C6F000E8D6F93
:1012E4002A0E8E6F060E8F6FFCC090F0FDC091F039
:1012F40083EC07F0AA0E00018C6F000E8D6F2B0E8D
:101304008E6F060E8F6FFCC090F0FDC091F083ECE1
:1013140007F00001FDBF98EF09F0FD5109E10A0E45
:10132400FC5DD8A098EF09F09AEF09F0BEEF09F040
:10133400000EA76F000EA66FAA0EA625D96E000E8A
:10134400A721DA6EDF509A6F9A51826F836B03EC98
:101354000EF00001A64BA72BA7BFBAEF09F0A751C7
:1013640009E1020EA65DD8A0BAEF09F0BCEF09F0BE
:101374009EEF09F0E6EF09F0000EA96F000EA86FCA
:10138400060E836F300E826F03EC0EF0AA0E00017E
:10139400A825D96E000EA921DA6EDF509A6F9A51F2
:1013A400826F836B03EC0EF00001A84BA92BA9BF3D
:1013B400E4EF09F0A95108E1A805D8A0E4EF09F089
:1013C400E6EF09F0C2EF09F01200818E0B0E026EF7
:1013D400260E016E5E0EE82EFED7012EFCD7022EDD
:1013E400FAD7819E0B0E026E260E016E5E0EE82E5B
:1013F400FED7012EFCD7022EFAD7818E0B0E026E79
:10140400260E016E5E0EE82EFED7012EFCD7022EAC
:10141400FAD7819E0B0E026E260E016E5E0EE82E2A
:10142400FED7012EFCD7022EFAD7818E0B0E026E48
:10143400260E016E5E0EE82EFED7012EFCD7022E7C
:10144400FAD7819E0B0E026E260E016E5E0EE82EFA
:10145400FED7012EFCD7022EFAD7818E0B0E026E18
:10146400260E016E5E0EE82EFED7012EFCD7022E4C
:10147400FAD7819E120000018651D8B444EF0AF0D5
:1014840046EF0AF04CEF0AF0000E836FC00E826F35
:1014940029EC0EF0000E00018A6F70EF0AF08A51F9
:1014A4008425876F000E8521886F87C0F6FF88C06A
:1014B400F7FFF86A050EF76403D00800F55005D06D
:1014C400F6CFE9FFF7CFEAFFEF500001896F8951AA
:1014D400826F836B03EC0EF000018A2B84C080F0D2
:1014E40085C081F09CEC0DF000018A51876F886BF8
:1014F4008051875D81518859D8A083EF0AF085EF28
:101504000AF051EF0AF012000750D8B48CEF0AF039
:101514008EEF0AF094EF0AF0000E046EC00E036E14
:101524003AEC0EF0000E0B6EB5EF0AF00B500524EA
:10153400086E000E0620096E08C0F6FF09C0F7FF0A
:10154400F86A050EF76403D00800F55005D0F6CF0D
:10155400E9FFF7CFEAFFEF500A6E0A50036E046A00
:1015640016EC0EF00B2A05C001F006C002F0C5EC23
:101574000DF00B50086E096A0150085C02500958BE
:10158400D8A0C7EF0AF0C9EF0AF098EF0AF01200EA
:10159400000E0001856F000E846F82518311D8B450
:1015A400D6EF0AF0D8EF0AF000EF0BF0010E866FC9
:1015B400E0EF0AF0D89082378337862B83AFE5EFCC
:1015C4000AF0E7EF0AF0DCEF0AF0D89084378537A9
:1015D4008251805D83518159D8A0F3EF0AF0F5EF71
:1015E4000AF0FAEF0AF08251805F8351815B8481B3
:1015F400D89083338233862FE7EF0AF084C080F0DB
:1016040085C081F0120080C084F081C085F00EEFA7
:101614000BF00001844B852B84C0D9FF85C0DAFF11
:10162400DF50D8A418EF0BF01AEF0BF00BEF0BF010
:1016340021EF0BF00001844B852B824B832B82C05E
:10164400F6FF83C0F7FFF86A84C0D9FF85C0DAFFCC
:10165400050EF76403D00800F55005D0F6CFE9FF76
:10166400F7CFEAFFEF50DF6EDF50D8A43CEF0BF06A
:101674003EEF0BF01CEF0BF01200000E836E000E19
:10168400956E1EEC0CF01EEC0CF01EEC0CF01EEC37
:101694000CF0839A030E836E65EC0EF01EEC0CF0D6
:1016A40065EC0EF01EEC0CF065EC0EF0020E836E91
:1016B40065EC0EF0000E0001836F2C0E826F29EC96
:1016C4000EF0000E0001836F0C0E826F29EC0EF0F9
:1016D400000E0001836F010E826F29EC0EF0000EE4
:1016E4000001836F060E826F29EC0EF01200000ECB
:1016F400066E000E056E03500410D8B484EF0BF090
:1017040086EF0BF0AEEF0BF0010E076E8EEF0BF0D1
:10171400D89003360436072A04AE93EF0BF095EF06
:101724000BF08AEF0BF0D890053606360350015CB7
:1017340004500258D8A0A1EF0BF0A3EF0BF0A8EFD0
:101744000BF00350015E0450025A0580D890043215
:101754000332072E95EF0BF005C001F006C002F02E
:10176400120001C005F002C006F0BBEF0BF0054A01
:10177400062A05C0D9FF06C0DAFFDF50D8A4C5EF9A
:101784000BF0C7EF0BF0B9EF0BF0CDEF0BF0054A00
:10179400062A034A042A03C0F6FF04C0F7FFF86AC6
:1017A40005C0D9FF06C0DAFF050EF76403D00800B0
:1017B400F55005D0F6CFE9FFF7CFEAFFEF50DF6E23
:1017C400DF50D8A4E8EF0BF0EAEF0BF0C9EF0BF011
:1017D4001200000189518A11D8B4F3EF0BF0F5EF30
:1017E4000BF019EF0CF0010E8B6FFDEF0BF0D8909E
:1017F40089378A378B2B8AAF02EF0CF004EF0CF099
:10180400F9EF0BF08951875D8A518859D8A00DEF03
:101814000CF00FEF0CF013EF0CF08951875F8A5135
:10182400885BD8908A3389338B2F04EF0CF087C000
:1018340087F088C088F01200010E5C6E000E5D6EA9
:10184400000E5E6E000E5F6E5FBE35EF0CF05F50F3
:101854005E100BE1F40E5C5C010E5D58D8A035EF10
:101864000CF037EF0CF039EF0CF050EF0CF0010EE8
:101874005C26000E5D225E225F225FBE4EEF0CF0FE
:101884005F505E100BE1F40E5C5C010E5D58D8A055
:101894004EEF0CF050EF0CF039EF0CF01200010E8B
:1018A4005C6E000E5D6E000E5E6E000E5F6E5FBEBF
:1018B40068EF0CF05F505E100BE1F40E5C5C010EFF
:1018C4005D58D8A068EF0CF06AEF0CF06CEF0CF0E8
:1018D40083EF0CF0010E5C26000E5D225E225F2277
:1018E4005FBE81EF0CF05F505E100BE1F40E5C5CA8
:1018F400010E5D58D8A081EF0CF083EF0CF06CEF73
:101904000CF012000A500B10D8B48BEF0CF08DEFD2
:101914000CF0B1EF0CF0010E0C6E95EF0CF0D890BA
:101924000A360B360C2A0BAE9AEF0CF09CEF0CF037
:1019340091EF0CF00A50085C0B500958D8A0A5EFA1
:101944000CF0A7EF0CF0ABEF0CF00A50085E0B5054
:10195400095AD8900B320A320C2E9CEF0CF008C0B6
:1019640008F009C009F01200000EF66E1D0EF76EA5
:10197400000EF86E0900F5CFFCF00900F5CFFDF07C
:10198400F40EF66E1C0EF76E000EF86E00EE6DF09F
:1019940010EE0CF00900F5CFEEFFE550E150FAE14E
:1019A40001EE00F0900EEE6AE806FDE1796A00EEC1
:1019B4005CF0110EEE6AE806FDE17A907A92000E70
:1019C400F86E0001ACEF06F0000180AFECEF0CF014
:1019D400EEEF0CF0F1EF0CF08386F2EF0CF083964F
:1019E40080ADF7EF0CF0F9EF0CF0FCEF0CF0838412
:1019F400FDEF0CF0839480AB02EF0DF004EF0DF0DB
:101A040007EF0DF0838208EF0DF0839280A90DEFAC
:101A14000DF00FEF0DF012EF0DF0838013EF0DF0CA
:101A240083901200000180A71AEF0DF01CEF0DF057
:101A34001FEF0DF0838620EF0DF0839680A525EF30
:101A44000DF027EF0DF02AEF0DF083842BEF0DF04E
:101A5400839480A330EF0DF032EF0DF035EF0DF0ED
:101A6400838236EF0DF0839280A13BEF0DF03DEFC2
:101A74000DF040EF0DF0838041EF0DF083901200E4
:101A840001AE47EF0DF049EF0DF04CEF0DF08386FA
:101A94004DEF0DF0839601AC52EF0DF054EF0DF0C5
:101AA40057EF0DF0838458EF0DF0839401AA5DEF96
:101AB4000DF05FEF0DF062EF0DF0838263EF0DF038
:101AC400839201A868EF0DF06AEF0DF06DEF0DF051
:101AD40083806EEF0DF08390120001A674EF0DF079
:101AE40076EF0DF079EF0DF083867AEF0DF08396A3
:101AF40001A47FEF0DF081EF0DF084EF0DF08384EE
:101B040085EF0DF0839401A28AEF0DF08CEF0DF0B8
:101B14008FEF0DF0838290EF0DF0839201A095EF8B
:101B24000DF097EF0DF09AEF0DF083809BEF0DF021
:101B34008390120080C082F081C083F0A5EF0DF085
:101B44000001824B832B82C0F6FF83C0F7FFF86A43
:101B5400050EF76403D00800F55005D0F6CFE9FF71
:101B6400F7CFEAFFEF500009D8A4BBEF0DF0BDEFAB
:101B74000DF0A2EF0DF000018051825D806F815164
:101B84008359816F120001C003F002C004F0CDEF4D
:101B94000DF0034A042A03C0F6FF04C0F7FFF86AF5
:101BA400050EF76403D00800F55005D0F6CFE9FF21
:101BB400F7CFEAFFEF500009D8A4E3EF0DF0E5EF0B
:101BC4000DF0CBEF0DF00150035C016E0250045890
:101BD400026E120080C0A9FF82C0A8FFA69EA69C28
:101BE400A684F29E550EA76EAA0EA76EA682F28E4A
:101BF400A1A8FFEF0DF001EF0EF0FAEF0DF0A198A0
:101C04001200838A82C080F083C081F0E6EC0CF07D
:101C140065EC0EF082C080F083C081F014EC0DF00E
:101C240065EC0EF0839A1200838A03C001F004C0AD
:101C340002F042EC0DF073EC0EF003C001F004C0AE
:101C440002F06FEC0DF073EC0EF0839A120082C078
:101C540080F083C081F0E6EC0CF065EC0EF082C0FD
:101C640080F083C081F014EC0DF065EC0EF01200EE
:101C740003C001F004C002F042EC0DF073EC0EF06E
:101C840003C001F004C002F06FEC0DF073EC0EF031
:101C94001200C168000E956E030E936EB00EF26EC4
:101CA400020ED56E3C0ED76EB00ED66EF086819EB7
:101CB400120079A860EF0EF063EF0EF0798864EFFC
:101CC4000EF07998120083881EEC0CF083981EECB9
:101CD4000CF0120080C0A9FFA694A69EA680A8506E
:101CE4001200838851EC0CF0839851EC0CF0120034
:0E1CF400434F4E464947555241FF0A0A010030
:020000040020DA
:08000000FFFFFFFFFFFFFFFF00
:020000040030CA
:0E000000FF071F1EFF8385FF0FC00FE00F409C
:00000001FF
